:100000000C9471010C94A2010C94A2010C94A20115
:100010000C94A2010C94A2010C94A2010C94A201D4
:100020000C94A2010C94A2010C941B070C946D0774
:100030000C94A2010C94A2010C94A2010C94A201B4
:100040000C94A2010C94A2010C94A2010C94A201A4
:100050000C94A2010C94A2010C94A2010C947106C0
:100060000C94A2010C94E5060C94BB060C94A2011E
:100070000C94A2010C94A2010C94A2010C94A20174
:100080000C94A2010C94A2010C94A2010C94A20164
:100090000C94A2010C94A2010C94A2010C94A20154
:1000A0000C94A2010C94A2010C94A2010C94A20144
:1000B0000C94A2010C94A2010C94A2010C94A20134
:1000C0000C94A2010C94A2010C94A2010C94A20124
:1000D0000C94A2010C94A2010C94A2010C94A20114
:1000E0000C94A2010C9414030C943C030C94F102A4
:1000F0000C941E030C946E030C94CD020C94C2015C
:100100000C94F9010C944C0A0C94E7010C94A70987
:100110000C94CC010C94D4010C94D5020C94F501F0
:100120000C94E1010C94350A0C9424040C94AF0255
:100130000C94B9020C949F030C94D7010C94070201
:100140000C9460090C94E7020C94EB010C940302EC
:100150000C9491030C947D030C94E2090C94AA0274
:100160000C94CD090C94C50B0C9441030C942803FA
:100170000C94C8010C94C3020C9467090C94B10A46
:100180000C94FB020C9402020C945F0A0C94EF0195
:100190000C9432030C94A2020C94D7030C94DD024D
:1001A0000C94EC0A0C94D5090C940A030C94D0011D
:1001B0000C94EF090C94DD010C944A090C94FD0198
:1001C000000020002300260029002C002F00320010
:1001D00000010000030106010901000021002400C4
:1001E00027002A002D003000330001010000040127
:1001F00007010A0100002200250028002B002E0024
:100200003100340002010000050108010B01050561
:100210000505070508080808020202020A0A08087C
:1002200004040404010101010101010103030303AA
:1002300003030303040707070C0C0C0C0C0C0C0C39
:100240000202020206060606060606060B0B0B0B4A
:100250000B0B0B0B0102102020080810204010206F
:10026000408002010201080402010102040810207A
:100270004080804020100804020180040201804078
:1002800020100804020108040201010204081020E1
:100290004080010204081020408000000A0B02097F
:1002A0000C0D0E0807030401000000000000000010
:1002B000000000000000000000000000000000003E
:1002C00000000000000012111000000000000000FB
:1002D000000000000000000000000000000000001E
:1002E000C50B11241FBECFEFD1E2DEBFCDBF00E0B2
:1002F0000CBF12E0A0E0B2E0EAEBFBE100E00BBFD4
:1003000002C007900D92AC34B107D9F723E0ACE4FA
:10031000B2E001C01D92A035B207E1F711E0C1E7DC
:10032000D1E000E006C021970109802FFE010E9464
:10033000B10DC037D10780E00807A9F70E94030874
:100340000C94DB0D0C9400008150823108F05AC0EF
:10035000E82FF0E08827E055FE4F8F4F0C94B10D49
:10036000D001D401C201C801CC010202D701DD01D4
:10037000E101E701EB01EF01F501F9010202FD01E5
:1003800003020702809180008F7780938000089598
:10039000809180008F7DF9CF80918000877FF5CF9D
:1003A00084B58F7784BD089584B58F7DFBCF809110
:1003B000B0008F778093B00008958091B0008F7D5A
:1003C000F9CF809190008F7780939000089580916D
:1003D00090008F7DF9CF80919000877FF5CF80913D
:1003E000A0008F778093A00008958091A0008F7D5A
:1003F000F9CF8091A000877FF5CF809120018F7782
:10040000809320010895809120018F7DF9CF809104
:100410002001877FF5CF1F93CF93DF93282F30E004
:10042000F901E656FD4F8491F901EC5AFD4FD49144
:10043000F901E25FFD4FC491CC23A9F0162F811181
:100440000E94A401EC2FF0E0EE0FFF1FEC50FE4FD6
:10045000A591B4918FB7F894EC91111108C0D09583
:10046000DE23DC938FBFDF91CF911F910895DE2BA8
:10047000F8CFCF93DF9390E0FC01EC5AFD4F24912D
:10048000825F9D4FFC0184918823D1F090E0880F1A
:10049000991FFC01E652FE4FA591B491FC01EC506E
:1004A000FE4FC591D49161110EC09FB7F8948C9105
:1004B000E22FE0958E238C932881E223E8839FBF6F
:1004C000DF91CF9108958FB7F894EC91E22BEC93E4
:1004D0008FBFF6CF1F93CF93DF93182FEB0161E00F
:1004E0000E943902209739F460E0812FDF91CF918B
:1004F0001F910C940B02CF3FD10511F461E0F5CFB1
:10050000E12FF0E0E656FD4FE491E150E23108F0D2
:10051000B3C0F0E08827E057FD4F8F4F0C94B10D2A
:10052000A202AA02AF02B902C3023C03CD02D50265
:10053000DD02E702F102FB020A0314033C031E037F
:100540002803320384B5806884BDC7BDDF91CF9195
:100550001F91089584B5806284BDC8BDF7CF809196
:100560008000806880938000D0938900C0938800C9
:10057000EDCF80918000806280938000D0938B00CB
:10058000C0938A00E3CF80918000886080938000D0
:10059000D0938D00C0938C00D9CF8091B00080683B
:1005A0008093B000C093B300D1CF8091B00080623F
:1005B0008093B000C093B400C9CF80919000806850
:1005C00080939000D0939900C0939800BFCF809102
:1005D0009000806280939000D0939B00C0939A001B
:1005E000B5CF80919000886080939000D0939D005B
:1005F000C0939C00ABCF8091A00080688093A00046
:100600008091A0008F7B8093A000D093A900C0931D
:10061000A8009CCF8091A00080628093A000D0931E
:10062000AB00C093AA0092CF8091A0008860809315
:10063000A000D093AD00C093AC0088CF8091200182
:10064000806880932001D0932901C09328017ECF38
:1006500080912001806280932001D0932B01C09370
:100660002A0174CF80912001886080932001D0936B
:100670002D01C0932C016ACFC038D1050CF03ECFBC
:1006800033CFAF92BF92CF92DF92EF92FF920F9350
:100690001F93CF93DF936C017B018B01040F151F18
:1006A000EB015E01AE18BF08C017D10759F0699180
:1006B000D601ED91FC910190F081E02DC6011995D4
:1006C000892B79F7C501DF91CF911F910F91FF9091
:1006D000EF90DF90CF90BF90AF900895FC01538DC5
:1006E000448D252F30E0842F90E0821B930B54170C
:1006F00010F0CF96089501970895FC01918D828D99
:10070000981761F0A28DAE0FBF2FB11D5D968C9131
:10071000928D9F5F9F73928F90E008958FEF9FEF70
:100720000895FC01918D828D981731F0828DE80F2C
:10073000F11D858D90E008958FEF9FEF0895FC01E6
:10074000918D228D892F90E0805C9F4F821B9109B3
:100750008F739927089583EB92E00E949F0321E015
:10076000892B09F420E0822F0895FC01A48DA80FA5
:10077000B92FB11DA35ABF4F2C91848D90E00196E3
:100780008F739927848FA689B7892C93A089B18903
:100790008C91837080648C93938D848D981306C0A4
:1007A0000288F389E02D80818F7D80830895EF9208
:1007B000FF920F931F93CF93DF93EC0181E0888F1B
:1007C0009B8D8C8D98131AC0E889F989808185FFEB
:1007D00015C09FB7F894EE89FF896083E889F9898D
:1007E00080818370806480839FBF81E090E0DF918F
:1007F000CF911F910F91FF90EF900895F62E0B8DE2
:1008000010E00F5F1F4F0F731127E02E8C8D8E119C
:100810000CC00FB607FCFACFE889F989808185FF03
:10082000F5CFCE010E94B503F1CFEB8DEC0FFD2F7C
:10083000F11DE35AFF4FF0829FB7F8940B8FEA89BE
:10084000FB8980818062CFCFCF93DF93EC01888DCD
:100850008823B9F0AA89BB89E889F9898C9185FD3B
:1008600003C0808186FD0DC00FB607FCF7CF8C91C9
:1008700085FFF2CF808185FFEDCFCE010E94B503C9
:10088000E9CFDF91CF91089580E090E0892B29F0A6
:100890000E94AB0381110E94000080E090E0892B50
:1008A00049F080E090E0892B29F00E94000081113E
:1008B0000E94000080E090E0892B49F080E090E009
:1008C000892B29F00E94000081110E94000080E025
:1008D00090E0892B49F080E090E0892B29F00E947C
:1008E000000081110C94000008952F923F924F92C6
:1008F0005F926F927F928F929F92AF92BF92CF92B0
:10090000DF92EF92FF920F931F93CF93DF93EC014F
:100910008C809D80AE80BF80888599858401081B6E
:10092000190BB801012E000C880B990B0E94E40CE6
:100930009B01AC01688179818A819B810E943F0C77
:100940000E94AC0C6B016E847F84A0910402B09174
:100950000502AC019B010E94B90D1B012C018C8585
:100960009D85A801481B590B20910202309103027A
:10097000429FC001439F900D529F900D1124092E5C
:10098000000CAA0BBB0BA2019101281B390B4A0BCF
:100990005B0BCA01B9019301072C000C440B550BEA
:1009A000620F731F841F951F209100023091010276
:1009B000032E000C440B550B0E94920D88869986DD
:1009C000AA86BB8688899989AA89BB89820F931FC9
:1009D000A41FB51F8F3F9105A105B10574F58230A5
:1009E0003FEF9307A307B3076CF160914E0270913C
:1009F0004F026C9D90016D9D300D7C9D300D11243A
:100A0000620E731E7F866E86888B998BAA8BBB8B3A
:100A10001D870C87DF91CF911F910F91FF90EF9071
:100A2000DF90CF90BF90AF909F908F907F906F900E
:100A30005F904F903F902F9008958FEF90E0A0E04F
:100A4000B0E0E2CF81E09FEFAFEFBFEFDDCFECE6AC
:100A5000F2E01082118212821382809180029091C2
:100A60008102A0918202B091830284839583A68340
:100A7000B78380879187A287B387108A118A128AE9
:100A8000138A1586148617861686E4E5F2E010822E
:100A90001182128213828091680290916902A09162
:100AA0006A02B0916B0284839583A683B7838087A3
:100AB0009187A287B387108A118A128A138A1586B2
:100AC0001486178616860895FC0101900020E9F728
:100AD0003197AF01481B590BBC0183EB92E00C949A
:100AE0004103CF93DF930E946405EC0180E392E021
:100AF0000E9464058C0F9D1FDF91CF9108958F9206
:100B00009F92AF92BF92CF92DF92EF92FF920F939C
:100B10001F93CF93DF93CDB7DEB7A1970FB6F894AD
:100B2000DEBF0FBECDBF6B017C01F7FE41C06DE2A1
:100B300083EB92E00E94D7038C0122273327A9017F
:100B40002C193D094E095F0919A2CE0181967C013D
:100B50009AE0892E912CA12CB12CCA01B901A501D2
:100B600094010E94700D605DF70162937F01211571
:100B700031054105510589F790E080E0309719F083
:100B8000CF010E946405800F911FA1960FB6F894C3
:100B9000DEBF0FBECDBFDF91CF911F910F91FF90B0
:100BA000EF90DF90CF90BF90AF909F908F9008957F
:100BB000AC019B0119A28E010F5D1F4F8AE0C82E68
:100BC000D12CE12CF12CCA01B901A70196010E9498
:100BD000700D605DF80162938F01211531054105AB
:100BE000510589F790E080E0309779F2CF010E94BB
:100BF0006405CBCFCF93DF93BC01990F880B990B82
:100C00000E947F05EC0180E392E00E9464058C0F56
:100C10009D1FDF91CF910895CF93DF930E947F05B1
:100C2000EC0180E392E00E9464058C0F9D1FDF9130
:100C3000CF9108950F931F93CF93DF93EC018B0116
:100C4000BC0180E0D7FF05C0662777276C1B7D0BB2
:100C500081E06F3F710519F014F06FEF70E08111C2
:100C600032C088E00E946A0270E060E087E00E9483
:100C70006A02B80120E017FF05C066277727601BCE
:100C8000710B21E06F3F710519F014F06FEF70E008
:100C9000211120C083E00E946A0270E060E084E0DD
:100CA0000E946A02BE01DD0F880B990B0E947F052E
:100CB00083E392E00E946405C801DF91CF911F9108
:100CC0000F910C94FA0587E00E946A0270E060E0E0
:100CD00088E0CDCF84E00E946A0270E060E083E0AB
:100CE000DFCF1F920F920FB60F9211242F933F93D5
:100CF0008F939F93AF93BF938091AF029091B00277
:100D0000A091B102B091B2023091AE0223E0230F64
:100D10002D3758F50196A11DB11D2093AE02809389
:100D2000AF029093B002A093B102B093B20280914F
:100D3000AA029091AB02A091AC02B091AD020196D3
:100D4000A11DB11D8093AA029093AB02A093AC02A7
:100D5000B093AD02BF91AF919F918F913F912F9131
:100D60000F900FBE0F901F90189526E8230F029644
:100D7000A11DB11DD2CF1F920F920FB60F92112459
:100D80000BB60F922F933F934F935F936F937F9385
:100D90008F939F93AF93BF93EF93FF9383EB92E077
:100DA0000E94B503FF91EF91BF91AF919F918F91F9
:100DB0007F916F915F914F913F912F910F900BBE5B
:100DC0000F900FBE0F901F9018951F920F920FB6A5
:100DD0000F9211240BB60F922F938F939F93EF9343
:100DE000FF93E091C302F091C4028081E091C902B7
:100DF000F091CA0282FD1DC090818091CC028F5F6C
:100E00008F732091CD02821741F0E091CC02F0E087
:100E1000ED54FD4F958F8093CC02FF91EF919F9100
:100E20008F912F910F900BBE0F900FBE0F901F90C0
:100E300018958081F2CF1F920F920FB60F92112456
:100E40000BB60F924F935F936F937F938F939F9304
:100E5000AF93BF93EF93FF93E0914D02EE0FEE0F30
:100E6000E0934D0286B190E044E0959587954A95D0
:100E7000E1F783709927E82BE0934D0240916802D7
:100E80005091690260916A0270916B02EF70F0E01C
:100E9000E25FFD4F9081892F990F990BAA0BBB0B35
:100EA000840F951FA61FB71F809368029093690255
:100EB000A0936A02B0936B02FF91EF91BF91AF9143
:100EC0009F918F917F916F915F914F910F900BBE8A
:100ED0000F900FBE0F901F9018951F920F920FB694
:100EE0000F9211240BB60F924F935F936F937F93E2
:100EF0008F939F93AF93BF93EF93FF93E0914C0237
:100F0000EE0FEE0FE0934C0289B190E09595879536
:100F10009595879583709927E82BE0934C02409133
:100F20008002509181026091820270918302EF7081
:100F3000F0E0E25FFD4F9081892F990F990BAA0B8A
:100F4000BB0B840F951FA61FB71F80938002909341
:100F50008102A0938202B0938302FF91EF91BF912F
:100F6000AF919F918F917F916F915F914F910F9072
:100F70000BBE0F900FBE0F901F901895CF92DF926F
:100F8000EF92FF920F931F93E82FF92F05C00150A6
:100F900011092109310961F1908196239417B9F360
:100FA00005C0015011092109310911F190819623E1
:100FB0009413F7CFC12CD12CE12CF12C0AC08FEF68
:100FC000C81AD80AE80AF80A0C151D052E053F05AF
:100FD00079F080818623841791F36C2D7D2D8E2DE1
:100FE0009F2D1F910F91FF90EF90DF90CF9008956C
:100FF00060E070E080E090E01F910F91FF90EF9033
:10100000DF90CF900895CF93DF9300D000D000D031
:101010001F92CDB7DEB7789484B5826084BD84B565
:10102000816084BD85B5826085BD85B5816085BDE3
:1010300080916E00816080936E001092810080919B
:101040008100826080938100809181008160809323
:101050008100809180008160809380008091B10048
:1010600084608093B1008091B00081608093B00073
:1010700080919100826080939100809191008160C5
:101080008093910080919000816080939000809186
:10109000A10082608093A1008091A1008160809373
:1010A000A1008091A00081608093A0008091210127
:1010B00082608093210180912101816080932101D0
:1010C0008091200181608093200180917A0084606A
:1010D00080937A0080917A00826080937A00809178
:1010E0007A00816080937A0080917A008068809392
:1010F0007A001092C100E091C302F091C40282E034
:101100008083E091BF02F091C0021082E091C102A1
:10111000F091C20280E180831092CB02E091C7027D
:10112000F091C80286E08083E091C502F091C6028A
:10113000808180618083E091C502F091C602808148
:1011400088608083E091C502F091C602808180684A
:101150008083E091C502F091C60280818F7D8083FB
:10116000529853983C983D985A9A5B9A449A459A5B
:1011700080916D008C6080936D0080916C00806325
:1011800080936C008091680086608093680061E0C5
:1011900082E00E940B0261E086E00E940B020E9446
:1011A000270523E0222E312C3FE0832E912C4AE3A9
:1011B000442E512C612C712C52E0E52EF12CCC24C4
:1011C000C394D12C76E9A72E72E0B72E83EB92E080
:1011D0000E949F03181619060CF03FC283EB92E0A1
:1011E0000E947D032091A8023091A9028D3009F060
:1011F000F6C12130310509F042C0E091A602F0911C
:10120000A702EA56FD4F1082BA86A98686E992E0C7
:101210000E94F20B8C01909353028093520286E855
:1012200092E00E94F20BBC01909351028093500215
:10123000E0918502E156E83108F0CEC10E2E000C97
:10124000FF0B8827E95DF64F8F4F0C94B10D6709AE
:101250006009E209A709350AEC0AEC0AEC0AEC0A73
:10126000EC0AEC0AEC0A5F0AEC0AB10AEF09EC0A94
:101270004C0AEC0AEC0A4A09EC0AD509CD092230DD
:10128000310509F0C1CFE091A602F091A702EA571B
:10129000FD4FB9CF8E010F5F1F4FAE01475F5F4F0C
:1012A0006AE372E089859A850E94100C009709F420
:1012B0007AC10E94F20BD8018D939D938D01EDCFE1
:1012C00060E072EC81E090E00E940C0620C0802F6C
:1012D000063310F08AEC800F20917B00982F9870D5
:1012E000277F922B90937B008770806480937C0093
:1012F00080917A00806480937A0080917A0086FDE4
:10130000FCCF80917800909179000E94FA051092AC
:101310008502E6E9F2E020E111922A95E9F7E6E894
:10132000F2E0DF0120E11D922A95E9F710925302C5
:101330001092520210925102109250021092A90281
:101340001092A8021092A7021092A6023FCF980115
:101350003327F901E656FD4F8491F901EC5AFD4F10
:101360001491F901E25FFD4F0491002399F081117E
:101370000E94A401E02FF0E0EE0FFF1FE054FE4FAB
:10138000A591B491EC911E2381E090E009F0BDCFCE
:1013900080E0BBCF80E090E0B8CF802F0E946A024F
:1013A00085E392E00E947105B2CF6115710529F4C1
:1013B00060E0802F0E940B02F3CF6130710581F74E
:1013C00061E0F7CF6115710529F460E0802F0E947C
:1013D0003902E6CF6130710519F761E0F7CF61E0BE
:1013E000802F0E94390260E0802F0E940B02C10111
:1013F0000197F1F761E0802F0E940B02C401019771
:10140000F1F760E0802F0E940B0260E0802F0E94C5
:1014100039021127F801EC5AFD4F6491F801E25F9F
:10142000FD4FE491F0E0EE0FFF1FE054FE4F859179
:10143000949100E412E42FE030E0462F0E94BE07B2
:10144000611571058105910529F06F5F7F4F8F4F01
:101450009F4F9F70A30192010E94920DCA01B90192
:101460000E94E40C0E94AC0C2FCF6091800270911E
:10147000810280918202909183020E947F0588E31D
:1014800092E00E9464056091680270916902809107
:101490006A0290916B0218CF109280021092810222
:1014A00010928202109283021092680210926902D6
:1014B00010926A0210926B020E94270571CF2FB71B
:1014C000F8948091AF029091B002A091B102B091D6
:1014D000B2022FBF8093060290930702A0930802E6
:1014E000B09309028091520290915302892BA9F581
:1014F0008091500290915102892B79F570E060E063
:1015000090E080E00E941A060E9427051092840253
:101510006091520270915302072E000C880B990BB8
:101520000E94E40C60936C0270936D0280936E02D3
:1015300090936F026091500270915102072E000C3F
:10154000880B990B0E94E40C60935402709355022F
:10155000809356029093570223CF21E02093840278
:10156000D7CF2FB7F8948091AF029091B002A0919D
:10157000B102B091B2022FBF80930602909307028E
:10158000A0930802B09309020E94270510928402DA
:1015900060915002709151028091520290915302D9
:1015A0000E941A06FDCE89819A819093050280934C
:1015B00004028B819C8190930302809302028D81AF
:1015C0009E8190934F0280934E028F8198859093D5
:1015D000010280930002E4CE8CE392E0E3CE8032FD
:1015E000C1F42115310529F4D092A902C092A802B4
:1015F000EDCD2130310509F0E9CDE091A602F09161
:10160000A702EA56FD4F1082F092A902E092A802CA
:1016100099CE2115310519F480938502D7CD21305B
:10162000310579F42091A6023091A702F901EA561A
:10163000FD4F80832F5F3F4F3093A7022093A60278
:10164000C5CD2230310509F0C1CD2091A6023091DF
:10165000A702F901EA57FD4FECCF2FB7F89480911C
:10166000AF029091B002A091B102B091B2022FBF2F
:1016700040910A0250910B0260910C0270910D0290
:10168000481759076A077B0708F045C08091800218
:1016900090918102A0918202B091830280937002A6
:1016A00090937102A0937202B093730280916802CA
:1016B00090916902A0916A02B0916B0280935802E6
:1016C00090935902A0935A02B0935B0280918402D6
:1016D000811148C08091780290917902892B31F470
:1016E0008091600290916102892B11F00E94270580
:1016F00080910A0290910B02A0910C02B0910D0210
:101700008196A11DB11D80930A0290930B02A093B4
:101710000C02B0930D022FB7F8948091AF02909114
:10172000B002A091B102B091B2022FBF4091060267
:10173000509107026091080270910902841B950B79
:10174000A60BB70B813D9740A105B10540F070E0B5
:1017500060E090E080E00E941A06109284020E94ED
:10176000440434CD84E592E00E9475048CE692E056
:101770000E947504609164027091650280917C0200
:1017800090917D020E941A06B3CFE3EBF2E0138240
:10179000128288EE93E0A0E0B0E084839583A68374
:1017A000B78382E292E09183808385EC90E0958715
:1017B000848784EC90E09787868780EC90E0918B1B
:1017C000808B81EC90E0938B828B82EC90E0958B08
:1017D000848B86EC90E0978B868B118E128E138E05
:1017E000148E0895FC0188279927E89421912032CE
:1017F000E9F3293010F02E30C8F32B3241F02D32AE
:1018000039F4689404C00E94370C820F911D219115
:1018100020532A30C0F31EF4909581959F4F089570
:10182000FA01A191B081009719F41097E1F0CD0170
:10183000DC01CD010D90002011F4C00113C0FB01AB
:101840002191222319F02015D9F7F3CFFB01219123
:10185000201519F41E92119606C02223C1F70D908F
:101860000020A1F7D001FA01A193B08308957AE096
:10187000979F902D879F802D910D1124089550588A
:10188000BB27AA270E94570C0C94360D0E94280DE6
:1018900038F00E942F0D20F039F49F3F19F426F400
:1018A0000C94250D0EF4E095E7FB0C941F0DE92F29
:1018B0000E94470D58F3BA1762077307840795070C
:1018C00020F079F4A6F50C94690D0EF4E0950B2E3A
:1018D000BA2FA02D0B01B90190010C01CA01A00182
:1018E0001124FF27591B99F0593F50F4503E68F1DD
:1018F0001A16F040A22F232F342F4427585FF3CF1E
:10190000469537952795A795F0405395C9F77EF4EE
:101910001F16BA0B620B730B840BBAF09150A1F037
:10192000FF0FBB1F661F771F881FC2F70EC0BA0FBD
:10193000621F731F841F48F4879577956795B79545
:10194000F7959E3F08F0B0CF9395880F08F0992740
:10195000EE0F9795879508950E94B30C6894B11186
:101960000C946A0D08950E944F0D88F09F5798F0CF
:10197000B92F9927B751B0F0E1F0660F771F881F94
:10198000991F1AF0BA95C9F714C0B13091F00E94AE
:10199000690DB1E008950C94690D672F782F8827A1
:1019A000B85F39F0B93FCCF3869577956795B395D5
:1019B000D9F73EF490958095709561957F4F8F4F44
:1019C0009F4F0895E89409C097FB3EF49095809549
:1019D000709561957F4F8F4F9F4F9923A9F0F92FF5
:1019E00096E9BB279395F695879577956795B79573
:1019F000F111F8CFFAF4BB0F11F460FF1BC06F5F59
:101A00007F4F8F4F9F4F16C0882311F096E911C06A
:101A1000772321F09EE8872F762F05C0662371F08B
:101A200096E8862F70E060E02AF09A95660F771F9F
:101A3000881FDAF7880F9695879597F9089597F993
:101A40009F6780E870E060E008959FEF80EC089564
:101A500000240A941616170618060906089500248D
:101A60000A9412161306140605060895092E039407
:101A7000000C11F4882352F0BB0F40F4BF2B11F47B
:101A800060FF04C06F5F7F4F8F4F9F4F089557FDDA
:101A90009058440F551F59F05F3F71F04795880FDC
:101AA00097FB991F61F09F3F79F087950895121673
:101AB00013061406551FF2CF4695F1DF08C016161F
:101AC00017061806991FF1CF8695710561050894D0
:101AD0000895E894BB2766277727CB0197F90895E7
:101AE000A1E21A2EAA1BBB1BFD010DC0AA1FBB1F22
:101AF000EE1FFF1FA217B307E407F50720F0A21B94
:101B0000B30BE40BF50B661F771F881F991F1A9400
:101B100069F760957095809590959B01AC01BD012A
:101B2000CF010895052E97FB1EF400940E94A90D85
:101B300057FD07D00E94700D07FC03D04EF40C94A3
:101B4000A90D50954095309521953F4F4F4F5F4FD0
:101B5000089590958095709561957F4F8F4F9F4F19
:101B60000895EE0FFF1F881F8BBF0790F691E02DA1
:101B70001994B7FF0C94C10D0E94C10D821B930BE9
:101B800008950E94CC0DA59F900DB49F900DA49F29
:101B9000800D911D11240895A29FB001B39FC00133
:101BA000A39F700D811D1124911DB29F700D811D89
:0A1BB0001124911D0895F894FFCF51
:101BBA0032000C001400D0070000210000000001D0
:101BCA00FF00FF000001010000FF00FF010000000C
:101BDA000000D70341036E0324049F037D0391038E
:101BEA000D0A002C004F4B0020003A00496E766126
:0C1BFA006C696420436F6D6D616E6400C7
:00000001FF
